:020000040000FA
:100000000C9463000C948B000C948B000C94EB020A
:100010000C94EB020C94EB020C948B000C948B0070
:100020000C948B000C948B000C948B000C948B0024
:100030000C948B000C948B000C948B000C948B0014
:100040000C9449020C948B000C94B9020C9493020A
:100050000C948B000C948B000C948B000C948B00F4
:100060000C948B000C948B0000000008000201002F
:100070000003040700000000000000000000000072
:1000800023002600290000000000240027002A0089
:1000900000000000250028002B00040404040404D0
:1000A0000404020202020202030303030303010227
:1000B00004081020408001020408102001020408F6
:1000C0001020AF03E30511241FBECFEFD8E0DEBF41
:1000D000CDBF11E0A0E0B1E0E4E2FCE002C0059099
:1000E0000D92AC33B107D9F722E0ACE3B1E001C027
:1000F0001D92A534B207E1F710E0C2E6D0E004C0DB
:100100002197FE010E94FF05C136D107C9F70E9461
:1001100098040C9405060C940000AF92BF92CF9205
:10012000DF92EF92FF920F931F93CF93DF936C01B7
:100130007B018B01040F151FEB015E01AE18BF0898
:10014000C017D10759F06991D601ED91FC9101904A
:10015000F081E02DC6010995892B79F7C501DF9162
:10016000CF911F910F91FF90EF90DF90CF90BF90B4
:10017000AF900895FC01538D448D252F30E0842FDE
:1001800090E0821B930B541710F0CF9608950197BF
:100190000895FC01918D828D981761F0A28DAE0FAC
:1001A000BF2FB11D5D968C91928D9F5F9F73928F33
:1001B00090E008958FEF9FEF0895FC01918D828D5F
:1001C000981731F0828DE80FF11D858D90E008952C
:1001D0008FEF9FEF0895FC01918D228D892F90E084
:1001E000805C9F4F821B91098F739927089589E83E
:1001F00091E00E94EB0021E0892B09F420E0822F9E
:10020000089580E090E0892B29F00E94F700811189
:100210000C9400000895FC01A48DA80FB92FB11D06
:10022000A35ABF4F2C91848D90E001968F7399272C
:10023000848FA689B7892C93A089B1898C9183700A
:1002400080648C93938D848D981306C00288F38903
:10025000E02D80818F7D80830895EF92FF920F9330
:100260001F93CF93DF93EC0181E0888F9B8D8C8D62
:1002700098131AC0E889F989808185FF15C09FB756
:10028000F894EE89FF896083E889F9898081837019
:10029000806480839FBF81E090E0DF91CF911F91C8
:1002A0000F91FF90EF900895F62E0B8D10E00F5FE9
:1002B0001F4F0F731127E02E8C8D8E110CC00FB6BF
:1002C00007FCFACFE889F989808185FFF5CFCE0157
:1002D0000E940B01F1CFEB8DEC0FFD2FF11DE35AC6
:1002E000FF4FF0829FB7F8940B8FEA89FB898081DA
:1002F0008062CFCFCF93DF93EC01888D8823B9F054
:10030000AA89BB89E889F9898C9185FD03C0808120
:1003100086FD0DC00FB607FCF7CF8C9185FFF2CF9D
:10032000808185FFEDCFCE010E940B01E9CFDF91E7
:10033000CF91089520917E0130917F0128173907D0
:1003400071F490917C0180917D01981741F0E091CA
:100350007C01F0E0E45CFE4F808190E008958FEF37
:100360009FEF08950895EF92FF920F931F93CF93FD
:10037000DF93DC015C96ED90FC905D97E114F10455
:1003800079F481E090E013969C938E93129790E01D
:1003900080E0DF91CF911F910F91FF90EF90089532
:1003A0005196ED91FC91529750968C915097982FC1
:1003B00090950FB75E962C915E97122F127021FDCB
:1003C0006095F8942081112319F1282B2083E701EF
:1003D0002197F1F728E0462F50E0308160FF1AC0E6
:1003E000382B3083E7012197F1F7BA0175956795AE
:1003F000215089F7112381F08081892380830FBFE9
:100400005C968D919C910197F1F781E090E0C1CFCE
:100410002923DCCF3923E5CF9081892BEFCF2091A1
:100420007E0130917F012817390761F480917D01A9
:1004300020917C0190E0805C9F4F821B91098F731B
:100440009927089590E080E0089520917E013091F1
:100450007F0128173907B9F490917C0180917D01C3
:10046000981789F0E0917C01F0E0E45CFE4F808118
:1004700020917C0130E02F5F3F4F2F733327209373
:100480007C0190E008958FEF9FEF089590E080E069
:1004900008951F920F920FB60F9211242F933F933E
:1004A0008F939F93AF93BF93809185019091860125
:1004B000A0918701B09188013091840123E0230F3E
:1004C0002D3758F50196A11DB11D2093840180930D
:1004D000850190938601A0938701B0938801809154
:1004E000800190918101A0918201B09183010196D8
:1004F000A11DB11D8093800190938101A093820181
:10050000B0938301BF91AF919F918F913F912F91B4
:100510000F900FBE0F901F90189526E8230F02969C
:10052000A11DB11DD2CF1F920F920FB60F921124B1
:100530002F933F934F935F936F937F938F939F93EB
:10054000AF93BF93EF93FF9389E891E00E940B0173
:10055000FF91EF91BF91AF919F918F917F916F919B
:100560005F914F913F912F910F900FBE0F901F9071
:1005700018951F920F920FB60F9211242F938F93FD
:100580009F93EF93FF93E0919901F0919A018081FD
:10059000E0919F01F091A00182FD1BC090818091AC
:1005A000A2018F5F8F732091A301821741F0E09128
:1005B000A201F0E0E757FE4F958F8093A201FF91D3
:1005C000EF919F918F912F910F900FBE0F901F90E1
:1005D00018958081F4CF1F920F920FB60F921124BD
:1005E0002F933F934F935F936F937F938F939F933B
:1005F000AF93BF93EF93FF93E0917E01F0917F0162
:10060000309749F0A685B7858585968D91FF14C0F2
:100610009C918923A1F4FF91EF91BF91AF919F919C
:100620008F917F916F915F914F913F912F910F909B
:100630000FBE0F901F9018959C91892361F7A38995
:10064000B4899C918589809589238C938689978923
:100650000197F1F7608D718DA685B785558538E0D6
:1006600020E0CB010197F1F7822F90E095958795D7
:10067000282F4C91452309F02068315091F7868D41
:1006800081FD209580917D0190E001968F739927DF
:1006900030917C01381799F0A0917D01B0E0A45C05
:1006A000BE4F2C9380937D01828D938D0197F1F73E
:1006B000A389B4898C919589892B8C93ACCF868D35
:1006C0008160868FF1CF90E0FC01E859FF4F2491C3
:1006D000FC01E255FF4F3491FC01E656FF4FE491D7
:1006E000EE23C9F0222339F0233001F1A8F42130A0
:1006F00019F1223029F1F0E0EE0FFF1FE057FF4F14
:10070000A591B4918FB7F894EC91611126C0309502
:100710003E233C938FBF08952730A9F02830C9F0BD
:10072000243049F7809180008F7D03C08091800044
:100730008F7780938000DFCF84B58F7784BDDBCF48
:1007400084B58F7DFBCF8091B0008F778093B00010
:10075000D2CF8091B0008F7DF9CF3E2BDACF0F93AF
:100760001F93CF93DF9310928C0110928B0188EE30
:1007700093E0A0E0B0E080938D0190938E01A09370
:100780008F01B093900124E031E030938A012093EF
:10079000890125EC30E0309396012093950124ECFB
:1007A00030E0309398012093970120EC30E03093B3
:1007B0009A012093990121EC30E030939C01209321
:1007C0009B0122EC30E030939E0120939D0126ECAA
:1007D00030E03093A00120939F011092A20110926B
:1007E000A3011092A4011092A50110922902109267
:1007F000280280932A0290932B02A0932C02B0939C
:100800002D0286E191E090932702809326021092B8
:100810003D0210923C0210923F0210923E02109252
:1008200041021092400210924302109242026091E3
:1008300044026E7F6D7F609344026695617081E033
:1008400068278BE00E94630349EB50E0FA01649152
:1008500085EA90E0FC012491222399F030E0220FF8
:10086000331FF901EA57FF4FA591B491F901E05701
:10087000FF4F259134912FB7F8943C91632B6C93E3
:100880002FBFFA01449140933602FC018491E82F76
:10089000F0E0EE0FFF1FE057FF4F8591949190938A
:1008A00038028093370208EB10E0F8012491C4EA83
:1008B000D0E0FE0184918823C9F090E0880F991F51
:1008C000FC01EA57FF4FA591B491FC01E057FF4F9F
:1008D000459154913FB7F8949C91822F809598232D
:1008E0009C93FA019081892380833FBF80914402C9
:1008F00081FD04C061E08AE00E9463038AE0809386
:100900003202F801049100933302FE01C491EC2FEE
:10091000F0E0EE0FFF1FE458FF4F85919491909304
:10092000350280933402DF91CF911F910F9108958A
:10093000789484B5826084BD84B5816084BD85B5BA
:10094000826085BD85B5816085BD80916E008160C6
:1009500080936E001092810080918100826080936C
:10096000810080918100816080938100809180006E
:100970008160809380008091B10084608093B10099
:100980008091B00081608093B00080917A00846093
:1009900080937A0080917A00826080937A008091BF
:1009A0007A00816080937A0080917A0080688093D9
:1009B0007A001092C100E0919901F0919A0182E0D1
:1009C0008083E0919501F09196011082E09197016A
:1009D000F091980183E380831092A101E0919D0141
:1009E000F0919E0186E08083E0919B01F0919C0153
:1009F000808180618083E0919B01F0919C018081E6
:100A000088608083E0919B01F0919C0180818068E7
:100A10008083E0919B01F0919C0180818F7D808398
:100A200043E150E064E271E089E891E00E948D00CA
:100A300042E050E068E371E089E891E00E948D00B7
:100A4000109241021092400210923F0210923E0218
:100A500010923D0210923C0285E690E09093430292
:100A60008093420290913202963108F047C021E211
:100A700030E030933D0220933C0223E630E0309397
:100A80003F0220933E0222E430E030934102209363
:100A900040022091680084E0983048F031E09E30B8
:100AA00008F430E081E001C0880F3A95EAF7822B24
:100AB000809368002DE630E0983050F02BE630E06F
:100AC0009E3030F02CE630E0963110F030E020E03F
:100AD00030933A0220933902292F30E0983008F001
:100AE00065C081E001C0880F9A95EAF780933B02C8
:100AF00080914202909143020197F1F78091400268
:100B000090914102892B49F1E0917E01F0917F01A2
:100B100082E0E632F80709F1309739F0A389B48909
:100B20009C918589809589238C93809144028E7F46
:100B30008093440210927D0110927C0186E292E043
:100B400090937F0180937E01E0913902F0913A0207
:100B5000808190913B02892B8083C0E0D0E089E8BE
:100B600091E00E94EB00892B49F089E891E00E9416
:100B7000C900682F86E292E00E94B30186E292E00B
:100B80000E940F02892B49F086E292E00E94250222
:100B9000682F89E891E00E942D01209701F30E94BF
:100BA000F7008823E1F20E940000D9CF9E3040F484
:100BB0002850310981E001C0880F2A95EAF796CFC5
:100BC0002E503109F7CF86E191E090932702809370
:100BD000260280917E0190917F018652924071F4AD
:100BE000E0913902F0913A02908180913B02809528
:100BF0008923808310927F0110927E010895EE0F69
:100C0000FF1F0590F491E02D099410E0C2E6D0E0BA
:100C100004C0FE010E94FF052196C336D107C9F723
:100C2000F894FFCF000000002D018D00BA007A017A
:100C3000EB00C900DD0000000000B3018D0046029A
:100C4000B2010F0225029A01626C7565746F6F74B0
:100C50006820697320726561647921000D0A0000C3
:107800000C94343C0C94513C0C94513C0C94513CE1
:107810000C94513C0C94513C0C94513C0C94513CB4
:107820000C94513C0C94513C0C94513C0C94513CA4
:107830000C94513C0C94513C0C94513C0C94513C94
:107840000C94513C0C94513C0C94513C0C94513C84
:107850000C94513C0C94513C0C94513C0C94513C74
:107860000C94513C0C94513C11241FBECFEFD8E036
:10787000DEBFCDBF11E0A0E0B1E0ECE9FFE702C060
:1078800005900D92A230B107D9F712E0A2E0B1E065
:1078900001C01D92AD30B107E1F70E942D3D0C945F
:1078A000CC3F0C94003C982F959595959595959582
:1078B000905D8F708A307CF0282F295A8091C0000B
:1078C00085FFFCCF9093C6008091C00085FFFCCF60
:1078D0002093C6000895282F205DF0CF982F809127
:1078E000C00085FFFCCF9093C6000895EF92FF92F1
:1078F0000F931F93EE24FF2487018091C00087FD22
:1079000017C00894E11CF11C011D111D81E4E8164B
:1079100082E4F8068FE0080780E0180770F3E09132
:107920000401F091050109958091C00087FFE9CF1E
:107930008091C6001F910F91FF90EF9008950E94D3
:10794000763C982F8091C00085FFFCCF9093C600B5
:1079500091362CF490330CF09053892F089597555D
:10796000892F08951F930E949F3C182F0E949F3CCF
:107970001295107F810F1F9108951F93182F882350
:1079800021F00E94763C1150E1F71F9108951F935A
:10799000182F0E94763C803249F0809103018F5F5E
:1079A000809303018530C1F01F9108958091C0003C
:1079B00085FFFCCF84E18093C6008091C00085FFE5
:1079C000FCCF1093C6008091C00085FFFCCF80E102
:1079D0008093C6001F910895E0910401F091050184
:1079E00009951F9108950E94763C803241F0809164
:1079F00003018F5F80930301853081F008958091AA
:107A0000C00085FFFCCF84E18093C6008091C00058
:107A100085FFFCCF80E18093C6000895E0910401CA
:107A2000F09105010995089540E951E08823A1F0FE
:107A30002D9A28EE33E0FA013197F1F721503040CA
:107A4000D1F72D9828EE33E0FA013197F1F7215064
:107A50003040D1F7815061F708953F924F925F9285
:107A60006F927F928F929F92AF92BF92CF92DF924E
:107A7000EF92FF920F931F93CF93DF93000080E16B
:107A80008093C4001092C50088E18093C10086E015
:107A90008093C2005098589A259A81E00E94143D24
:107AA00024E1F22E9EE1E92E85E9D82E0FE0C02ECA
:107AB00010E1B12EAA24A394B1E49B2EA6E58A2E50
:107AC000F2E57F2EE0E26E2E79E4572E63E5462E36
:107AD00050E5352E0E94763C8033B1F18133B9F107
:107AE000803409F46FC0813409F476C0823409F41B
:107AF00085C0853409F488C0803531F1823521F1A3
:107B0000813511F1853509F485C0863509F48DC0BC
:107B1000843609F496C0843709F403C1853709F423
:107B200072C1863709F466C0809103018F5F80932C
:107B30000301853079F6E0910401F0910501099582
:107B40000E94763C803351F60E94F33CC3CF0E94E2
:107B5000763C803249F78091C00085FFFCCFF092DF
:107B6000C6008091C00085FFFCCF9092C600809136
:107B7000C00085FFFCCF8092C6008091C00085FFC9
:107B8000FCCF7092C6008091C00085FFFCCF609250
:107B9000C6008091C00085FFFCCF5092C600809146
:107BA000C00085FFFCCF4092C6008091C00085FFD9
:107BB000FCCF3092C6008091C00085FFFCCFB09210
:107BC000C60088CF0E94763C863808F4BDCF0E945C
:107BD000763C0E94F33C7ECF0E94763C803809F4CC
:107BE0009CC0813809F40BC1823809F43CC1883942
:107BF00009F48FC080E00E94C73C6CCF84E10E94F2
:107C0000BD3C0E94F33C66CF85E00E94BD3C0E94D3
:107C1000F33C60CF0E94763C809306010E94763C44
:107C2000809307010E94F33C55CF0E94763C80333D
:107C300009F41DC183E00E94BD3C80E00E94C73C66
:107C400049CF0E94763C809309020E94763C809343
:107C5000080280910C028E7F80930C020E94763C79
:107C6000853409F415C18091080290910902892B8D
:107C700089F000E010E00E94763CF801E85FFE4FDA
:107C800080830F5F1F4F80910802909109020817AF
:107C9000190788F30E94763C803209F045CF809125
:107CA0000C0280FF01C16091060170910701660F0F
:107CB000771F7093070160930601A0910802B091AD
:107CC00009021097C9F0E8E0F1E09B01AD014E0F09
:107CD0005F1FF999FECF32BD21BD819180BDFA9A17
:107CE000F99A2F5F3F4FE417F50799F76A0F7B1F4B
:107CF00070930701609306018091C00085FFFCCF5F
:107D0000F092C6008091C00085FFFCCFB092C60003
:107D1000E1CE83E00E94C73CDDCE82E00E94C73CFA
:107D2000D9CE0E94763C809309020E94763C8093D3
:107D300008028091060190910701880F991F909386
:107D40000701809306010E94763C853409F4A6C0A1
:107D500080910C028E7F80930C020E94763C8032D0
:107D600009F0B8CE8091C00085FFFCCFF092C6002C
:107D7000609108027091090261157105B9F140E046
:107D800050E080910C02A82FA170B82FB27011C0E2
:107D9000BB2309F45CC0E0910601F0910701319624
:107DA000F0930701E09306014F5F5F4F46175707B7
:107DB000E8F4AA2369F3F999FECF209106013091E6
:107DC000070132BD21BDF89A90B58091C00085FFB2
:107DD000FCCF9093C6002F5F3F4F30930701209355
:107DE00006014F5F5F4F4617570718F38091C00099
:107DF00085FDE5CE8091C00085FFF8CFE0CE81E023
:107E00000E94C73C67CE0E94763C803209F08CCE3F
:107E10008091C00085FFFCCFF092C6008091C00029
:107E200085FFFCCFE092C6008091C00085FFFCCFAB
:107E3000D092C6008091C00085FFFCCFC092C600E2
:107E40008091C00085FFFCCFB092C60043CEE09188
:107E50000601F091070194918091C00085FFFCCF4D
:107E60009093C6009CCF80E10E94C73C33CE0E9415
:107E7000763C0E94763C182F0E94763C112309F430
:107E800083C0113009F484C08FE00E94C73C22CE29
:107E900080910C02816080930C02E5CE80910C02EF
:107EA000816080930C0259CF809107018823880F4D
:107EB000880B8A2180930B02809106019091070123
:107EC000880F991F90930701809306018091080203
:107ED00080FF09C080910802909109020196909359
:107EE000090280930802F894F999FECF1127E091D6
:107EF0000601F0910701C8E0D1E08091080290915D
:107F00000902103091F40091570001700130D9F34B
:107F100003E000935700E89500915700017001308D
:107F2000D9F301E100935700E89509901990009169
:107F3000570001700130D9F301E000935700E89534
:107F40001395103498F011270091570001700130FB
:107F5000D9F305E000935700E895009157000170B0
:107F60000130D9F301E100935700E895329602976A
:107F700009F0C7CF103011F00296E5CF112480919F
:107F8000C00085FFB9CEBCCE8EE10E94C73CA2CD19
:0E7F900085E90E94C73C9ECDF894FFCF80008B
:00000001FF
